:100000006AC079C078C077C076C075C074C073C04C
:1000100072C071C070C06FC06EC06DC06CC06BC06C
:100020006AC069C068C067C066C065C064C063C09C
:1000300063C061C09DC076C075C074C073C072C01B
:1000400071C070C095C06EC06DC06CC06BC06AC01E
:1000500069C068C097C066C065C064C063C062C044
:1000600061C060C05FC05EC05DC05CC05BC05AC0A4
:1000700059C058C087C056C055C054C053C052C0A4
:1000800051C050C04FC04EC04DC04CC04BC04AC004
:1000900049C048C08EC046C045C044C043C042C0ED
:1000A00041C040C08AC03EC03DC03CC03BC03AC019
:1000B00039C038C037C036C035C034C033C032C094
:1000C00031C030C088C02EC02DC02CC02BC02AC06B
:1000D00029C028C03EC011241FBECFEFD2E0DEBF32
:1000E000CDBF21E0A0E0B1E001C01D92A536B2076E
:1000F000E1F711D14DC184CF1F920F920FB60F922D
:1001000011242F933F938F939F93AF93BF93EF93BC
:10011000FF93E091B9008E2F90E0FC013897E13514
:10012000F105A0F08091B9008093100184E08093E4
:10013000BC00FF91EF91BF91AF919F918F913F9143
:100140002F910F900FBE0F901F901895E65EFF4FF6
:10015000099480910101E0911101F0911201E80FE1
:10016000F11D8091BB00808384E98093BC00E1CFC6
:10017000809113018093BB001092010185E8809368
:10018000BC00D7CF8091010190911401891760F7CD
:10019000E0911101F091120191E0980F909301010B
:1001A000E80FF11D80818093BB0085E88093BC003F
:1001B000C0CF85EA8093BC00BCCF20910101809123
:1001C000140130E090E0019728173907DCF485EC42
:1001D0008093BC00AECFE0911101F09112018091AB
:1001E000010121E0280F20930101E80FF11D80910A
:1001F000BB0080838091140130E090E001972817C4
:1002000039072CF385E88093BC0093CF8091BC0024
:10021000817008959091BC0090FDFCCF8E7F8093FB
:10022000130170931201609311014093140185EA48
:100230008093BC0008959091BC0090FDFCCF81603C
:100240008093130170931201609311014093140184
:1002500085EA8093BC0008958FEF8093BB001092D5
:10026000B9008CE08093B80008959091C00095FF8C
:10027000FCCF8093C6008091C00085FFFCCF08951D
:10028000FC012081222371F031969091C00095FFEE
:10029000FCCF2093C6009091C00095FFFCCF219128
:1002A0002111F3CF08959C01C901F9014491442320
:1002B00099F02F5F3F4FFC0184919091C00095FF12
:1002C000FCCF8093C6009091C00095FFFCCFC90180
:1002D000F90144914111EDCF0895E1ECF0E0808106
:1002E00088618083E2ECF0E08081866080831092F8
:1002F000C50083E38093C400089580E89EE302C0B4
:10030000019739F02091C00027FFFACF8091C600F5
:10031000089580E00895549A9FDFDFDF10920E0168
:1003200010920F0142E06EE071E080E973DF789493
:100330008091C00087FFFCCF5C9A8091C6008093BB
:100340000E01809100018F7E8093000142E062E007
:1003500071E080E970DF80910201880F90910301C4
:10036000991F9927991F892B809302017EDF909115
:10037000030196FD08C020E095FD08C080E0820FD3
:1003800074DF5C98D5CF25E095FFF8CF82E0F7CFFA
:04039000F894FFCF0F
:00000001FF
